{
  "_format": "hh-sol-artifact-1",
  "contractName": "ScholarshipPlatform",
  "sourceName": "contracts/ScholarshipPlatform.sol",
  "abi": [
    {
      "anonymous": false,
      "inputs": [
        {
          "indexed": true,
          "internalType": "uint256",
          "name": "id",
          "type": "uint256"
        },
        {
          "indexed": true,
          "internalType": "address",
          "name": "donor",
          "type": "address"
        },
        {
          "indexed": false,
          "internalType": "uint256",
          "name": "amount",
          "type": "uint256"
        }
      ],
      "name": "DonationReceived",
      "type": "event"
    },
    {
      "anonymous": false,
      "inputs": [
        {
          "indexed": true,
          "internalType": "uint256",
          "name": "id",
          "type": "uint256"
        },
        {
          "indexed": true,
          "internalType": "address",
          "name": "student",
          "type": "address"
        },
        {
          "indexed": false,
          "internalType": "uint256",
          "name": "amount",
          "type": "uint256"
        }
      ],
      "name": "FundsReleased",
      "type": "event"
    },
    {
      "anonymous": false,
      "inputs": [
        {
          "indexed": true,
          "internalType": "uint256",
          "name": "id",
          "type": "uint256"
        },
        {
          "indexed": true,
          "internalType": "address",
          "name": "student",
          "type": "address"
        }
      ],
      "name": "ScholarshipAssigned",
      "type": "event"
    },
    {
      "anonymous": false,
      "inputs": [
        {
          "indexed": true,
          "internalType": "uint256",
          "name": "id",
          "type": "uint256"
        },
        {
          "indexed": true,
          "internalType": "address",
          "name": "donor",
          "type": "address"
        },
        {
          "indexed": false,
          "internalType": "string",
          "name": "title",
          "type": "string"
        },
        {
          "indexed": false,
          "internalType": "uint256",
          "name": "amount",
          "type": "uint256"
        }
      ],
      "name": "ScholarshipCreated",
      "type": "event"
    },
    {
      "anonymous": false,
      "inputs": [
        {
          "indexed": true,
          "internalType": "uint256",
          "name": "id",
          "type": "uint256"
        },
        {
          "indexed": true,
          "internalType": "address",
          "name": "wallet",
          "type": "address"
        },
        {
          "indexed": false,
          "internalType": "string",
          "name": "name",
          "type": "string"
        }
      ],
      "name": "StudentRegistered",
      "type": "event"
    },
    {
      "inputs": [
        {
          "internalType": "uint256",
          "name": "_scholarshipId",
          "type": "uint256"
        },
        {
          "internalType": "address",
          "name": "_student",
          "type": "address"
        }
      ],
      "name": "assignScholarship",
      "outputs": [],
      "stateMutability": "nonpayable",
      "type": "function"
    },
    {
      "inputs": [
        {
          "internalType": "string",
          "name": "_title",
          "type": "string"
        },
        {
          "internalType": "uint256",
          "name": "_amount",
          "type": "uint256"
        }
      ],
      "name": "createScholarship",
      "outputs": [],
      "stateMutability": "payable",
      "type": "function"
    },
    {
      "inputs": [
        {
          "internalType": "uint256",
          "name": "_scholarshipId",
          "type": "uint256"
        }
      ],
      "name": "donate",
      "outputs": [],
      "stateMutability": "payable",
      "type": "function"
    },
    {
      "inputs": [
        {
          "internalType": "uint256",
          "name": "_id",
          "type": "uint256"
        }
      ],
      "name": "getScholarship",
      "outputs": [
        {
          "components": [
            {
              "internalType": "uint256",
              "name": "id",
              "type": "uint256"
            },
            {
              "internalType": "address",
              "name": "donor",
              "type": "address"
            },
            {
              "internalType": "string",
              "name": "title",
              "type": "string"
            },
            {
              "internalType": "uint256",
              "name": "totalAmount",
              "type": "uint256"
            },
            {
              "internalType": "uint256",
              "name": "fundedAmount",
              "type": "uint256"
            },
            {
              "internalType": "address",
              "name": "assignedStudent",
              "type": "address"
            },
            {
              "internalType": "bool",
              "name": "active",
              "type": "bool"
            },
            {
              "internalType": "bool",
              "name": "fulfilled",
              "type": "bool"
            }
          ],
          "internalType": "struct ScholarshipPlatform.Scholarship",
          "name": "",
          "type": "tuple"
        }
      ],
      "stateMutability": "view",
      "type": "function"
    },
    {
      "inputs": [],
      "name": "nextScholarshipId",
      "outputs": [
        {
          "internalType": "uint256",
          "name": "",
          "type": "uint256"
        }
      ],
      "stateMutability": "view",
      "type": "function"
    },
    {
      "inputs": [],
      "name": "nextStudentId",
      "outputs": [
        {
          "internalType": "uint256",
          "name": "",
          "type": "uint256"
        }
      ],
      "stateMutability": "view",
      "type": "function"
    },
    {
      "inputs": [
        {
          "internalType": "string",
          "name": "_name",
          "type": "string"
        },
        {
          "internalType": "string",
          "name": "_documentHash",
          "type": "string"
        }
      ],
      "name": "registerStudent",
      "outputs": [],
      "stateMutability": "nonpayable",
      "type": "function"
    },
    {
      "inputs": [
        {
          "internalType": "uint256",
          "name": "_scholarshipId",
          "type": "uint256"
        }
      ],
      "name": "releaseFunds",
      "outputs": [],
      "stateMutability": "nonpayable",
      "type": "function"
    },
    {
      "inputs": [
        {
          "internalType": "uint256",
          "name": "",
          "type": "uint256"
        }
      ],
      "name": "scholarships",
      "outputs": [
        {
          "internalType": "uint256",
          "name": "id",
          "type": "uint256"
        },
        {
          "internalType": "address",
          "name": "donor",
          "type": "address"
        },
        {
          "internalType": "string",
          "name": "title",
          "type": "string"
        },
        {
          "internalType": "uint256",
          "name": "totalAmount",
          "type": "uint256"
        },
        {
          "internalType": "uint256",
          "name": "fundedAmount",
          "type": "uint256"
        },
        {
          "internalType": "address",
          "name": "assignedStudent",
          "type": "address"
        },
        {
          "internalType": "bool",
          "name": "active",
          "type": "bool"
        },
        {
          "internalType": "bool",
          "name": "fulfilled",
          "type": "bool"
        }
      ],
      "stateMutability": "view",
      "type": "function"
    },
    {
      "inputs": [
        {
          "internalType": "address",
          "name": "",
          "type": "address"
        }
      ],
      "name": "students",
      "outputs": [
        {
          "internalType": "uint256",
          "name": "id",
          "type": "uint256"
        },
        {
          "internalType": "string",
          "name": "name",
          "type": "string"
        },
        {
          "internalType": "string",
          "name": "documentHash",
          "type": "string"
        },
        {
          "internalType": "address",
          "name": "wallet",
          "type": "address"
        },
        {
          "internalType": "bool",
          "name": "isRegistered",
          "type": "bool"
        }
      ],
      "stateMutability": "view",
      "type": "function"
    }
  ],
  "bytecode": "0x608060405260016002556001600355348015601957600080fd5b506124fa806100296000396000f3fe6080604052600436106100915760003560e01c8063a3bf4f4c11610059578063a3bf4f4c14610171578063a6c807a9146101ae578063a8ca251b146101ef578063d84c01b31461021a578063f14faf6f1461024557610091565b80630a1b776c146100965780630d4ec380146100bf57806339dc58c6146100e85780634d68282f1461012c5780637acdaf6514610155575b600080fd5b3480156100a257600080fd5b506100bd60048036038101906100b8919061156b565b610261565b005b3480156100cb57600080fd5b506100e660048036038101906100e19190611677565b610505565b005b3480156100f457600080fd5b5061010f600480360381019061010a91906116b7565b6107df565b60405161012398979695949392919061179c565b60405180910390f35b34801561013857600080fd5b50610153600480360381019061014e91906116b7565b610909565b005b61016f600480360381019061016a9190611821565b610c6a565b005b34801561017d57600080fd5b50610198600480360381019061019391906116b7565b610f44565b6040516101a591906119a4565b60405180910390f35b3480156101ba57600080fd5b506101d560048036038101906101d091906119c6565b611104565b6040516101e69594939291906119f3565b60405180910390f35b3480156101fb57600080fd5b50610204611277565b6040516102119190611a54565b60405180910390f35b34801561022657600080fd5b5061022f61127d565b60405161023c9190611a54565b60405180910390f35b61025f600480360381019061025a91906116b7565b611283565b005b6000803373ffffffffffffffffffffffffffffffffffffffff1673ffffffffffffffffffffffffffffffffffffffff16815260200190815260200160002060030160149054906101000a900460ff16156102f0576040517f08c379a00000000000000000000000000000000000000000000000000000000081526004016102e790611abb565b60405180910390fd5b6000825111610334576040517f08c379a000000000000000000000000000000000000000000000000000000000815260040161032b90611b27565b60405180910390fd5b6000815111610378576040517f08c379a000000000000000000000000000000000000000000000000000000000815260040161036f90611b93565b60405180910390fd5b6040518060a0016040528060025481526020018381526020018281526020013373ffffffffffffffffffffffffffffffffffffffff168152602001600115158152506000803373ffffffffffffffffffffffffffffffffffffffff1673ffffffffffffffffffffffffffffffffffffffff1681526020019081526020016000206000820151816000015560208201518160010190816104179190611dbf565b50604082015181600201908161042d9190611dbf565b5060608201518160030160006101000a81548173ffffffffffffffffffffffffffffffffffffffff021916908373ffffffffffffffffffffffffffffffffffffffff16021790555060808201518160030160146101000a81548160ff0219169083151502179055509050503373ffffffffffffffffffffffffffffffffffffffff166002547f650c67273af7ff1100f70ff51af039bc5f6eade725b96c521b8eea6dbb6124d0846040516104e19190611e91565b60405180910390a3600260008154809291906104fc90611ee2565b91905055505050565b813373ffffffffffffffffffffffffffffffffffffffff166001600083815260200190815260200160002060010160009054906101000a900473ffffffffffffffffffffffffffffffffffffffff1673ffffffffffffffffffffffffffffffffffffffff16146105aa576040517f08c379a00000000000000000000000000000000000000000000000000000000081526004016105a190611f9c565b60405180910390fd5b6000808373ffffffffffffffffffffffffffffffffffffffff1673ffffffffffffffffffffffffffffffffffffffff16815260200190815260200160002060030160149054906101000a900460ff16610638576040517f08c379a000000000000000000000000000000000000000000000000000000000815260040161062f90612008565b60405180910390fd5b600073ffffffffffffffffffffffffffffffffffffffff166001600085815260200190815260200160002060050160009054906101000a900473ffffffffffffffffffffffffffffffffffffffff1673ffffffffffffffffffffffffffffffffffffffff16146106dd576040517f08c379a00000000000000000000000000000000000000000000000000000000081526004016106d490612074565b60405180910390fd5b6001600084815260200190815260200160002060050160159054906101000a900460ff1615610741576040517f08c379a0000000000000000000000000000000000000000000000000000000008152600401610738906120e0565b60405180910390fd5b816001600085815260200190815260200160002060050160006101000a81548173ffffffffffffffffffffffffffffffffffffffff021916908373ffffffffffffffffffffffffffffffffffffffff1602179055508173ffffffffffffffffffffffffffffffffffffffff16837fd473e14376798486a964f8abc622a87f3162bc9ad1df8acd956eea2906b0be7f60405160405180910390a3505050565b60016020528060005260406000206000915090508060000154908060010160009054906101000a900473ffffffffffffffffffffffffffffffffffffffff169080600201805461082e90611be2565b80601f016020809104026020016040519081016040528092919081815260200182805461085a90611be2565b80156108a75780601f1061087c576101008083540402835291602001916108a7565b820191906000526020600020905b81548152906001019060200180831161088a57829003601f168201915b5050505050908060030154908060040154908060050160009054906101000a900473ffffffffffffffffffffffffffffffffffffffff16908060050160149054906101000a900460ff16908060050160159054906101000a900460ff16905088565b803373ffffffffffffffffffffffffffffffffffffffff166001600083815260200190815260200160002060010160009054906101000a900473ffffffffffffffffffffffffffffffffffffffff1673ffffffffffffffffffffffffffffffffffffffff16146109ae576040517f08c379a00000000000000000000000000000000000000000000000000000000081526004016109a590611f9c565b60405180910390fd5b6000600160008481526020019081526020016000209050600073ffffffffffffffffffffffffffffffffffffffff168160050160009054906101000a900473ffffffffffffffffffffffffffffffffffffffff1673ffffffffffffffffffffffffffffffffffffffff1603610a58576040517f08c379a0000000000000000000000000000000000000000000000000000000008152600401610a4f9061214c565b60405180910390fd5b6000816004015411610a9f576040517f08c379a0000000000000000000000000000000000000000000000000000000008152600401610a96906121b8565b60405180910390fd5b8060050160159054906101000a900460ff1615610af1576040517f08c379a0000000000000000000000000000000000000000000000000000000008152600401610ae8906120e0565b60405180910390fd5b60008160040154905060008260050160009054906101000a900473ffffffffffffffffffffffffffffffffffffffff16905060018360050160156101000a81548160ff02191690831515021790555060008360050160146101000a81548160ff0219169083151502179055506000836004018190555060008173ffffffffffffffffffffffffffffffffffffffff1683604051610b8d90612209565b60006040518083038185875af1925050503d8060008114610bca576040519150601f19603f3d011682016040523d82523d6000602084013e610bcf565b606091505b5050905080610c13576040517f08c379a0000000000000000000000000000000000000000000000000000000008152600401610c0a9061226a565b60405180910390fd5b8173ffffffffffffffffffffffffffffffffffffffff16867f6e3c6096795c8298a218b2cfb8bde42726ff7c9a3d27b4d3ba41ab7f74feb5fb85604051610c5a9190611a54565b60405180910390a3505050505050565b6000825111610cae576040517f08c379a0000000000000000000000000000000000000000000000000000000008152600401610ca5906122d6565b60405180910390fd5b60008111610cf1576040517f08c379a0000000000000000000000000000000000000000000000000000000008152600401610ce890612342565b60405180910390fd5b60405180610100016040528060035481526020013373ffffffffffffffffffffffffffffffffffffffff168152602001838152602001828152602001348152602001600073ffffffffffffffffffffffffffffffffffffffff168152602001600115158152602001600015158152506001600060035481526020019081526020016000206000820151816000015560208201518160010160006101000a81548173ffffffffffffffffffffffffffffffffffffffff021916908373ffffffffffffffffffffffffffffffffffffffff1602179055506040820151816002019081610ddb9190611dbf565b50606082015181600301556080820151816004015560a08201518160050160006101000a81548173ffffffffffffffffffffffffffffffffffffffff021916908373ffffffffffffffffffffffffffffffffffffffff16021790555060c08201518160050160146101000a81548160ff02191690831515021790555060e08201518160050160156101000a81548160ff0219169083151502179055509050503373ffffffffffffffffffffffffffffffffffffffff166003547fd16e010c4100fad62d9e31dc411fef18d654bfc0dcea09eb581c499c4271958e8484604051610ec5929190612362565b60405180910390a36000341115610f28573373ffffffffffffffffffffffffffffffffffffffff166003547f0b5b4c52969ff7329ecf7ee536409fda87812b15a8622bc6e8cdeab3aee14a2634604051610f1f9190611a54565b60405180910390a35b60036000815480929190610f3b90611ee2565b91905055505050565b610f4c61139c565b6001600083815260200190815260200160002060405180610100016040529081600082015481526020016001820160009054906101000a900473ffffffffffffffffffffffffffffffffffffffff1673ffffffffffffffffffffffffffffffffffffffff1673ffffffffffffffffffffffffffffffffffffffff168152602001600282018054610fdb90611be2565b80601f016020809104026020016040519081016040528092919081815260200182805461100790611be2565b80156110545780601f1061102957610100808354040283529160200191611054565b820191906000526020600020905b81548152906001019060200180831161103757829003601f168201915b5050505050815260200160038201548152602001600482015481526020016005820160009054906101000a900473ffffffffffffffffffffffffffffffffffffffff1673ffffffffffffffffffffffffffffffffffffffff1673ffffffffffffffffffffffffffffffffffffffff1681526020016005820160149054906101000a900460ff161515151581526020016005820160159054906101000a900460ff1615151515815250509050919050565b600060205280600052604060002060009150905080600001549080600101805461112d90611be2565b80601f016020809104026020016040519081016040528092919081815260200182805461115990611be2565b80156111a65780601f1061117b576101008083540402835291602001916111a6565b820191906000526020600020905b81548152906001019060200180831161118957829003601f168201915b5050505050908060020180546111bb90611be2565b80601f01602080910402602001604051908101604052809291908181526020018280546111e790611be2565b80156112345780601f1061120957610100808354040283529160200191611234565b820191906000526020600020905b81548152906001019060200180831161121757829003601f168201915b5050505050908060030160009054906101000a900473ffffffffffffffffffffffffffffffffffffffff16908060030160149054906101000a900460ff16905085565b60025481565b60035481565b60006001600083815260200190815260200160002090508060050160149054906101000a900460ff166112eb576040517f08c379a00000000000000000000000000000000000000000000000000000000081526004016112e2906123de565b60405180910390fd5b6000341161132e576040517f08c379a000000000000000000000000000000000000000000000000000000000815260040161132590612470565b60405180910390fd5b348160040160008282546113429190612490565b925050819055503373ffffffffffffffffffffffffffffffffffffffff16827f0b5b4c52969ff7329ecf7ee536409fda87812b15a8622bc6e8cdeab3aee14a26346040516113909190611a54565b60405180910390a35050565b60405180610100016040528060008152602001600073ffffffffffffffffffffffffffffffffffffffff168152602001606081526020016000815260200160008152602001600073ffffffffffffffffffffffffffffffffffffffff1681526020016000151581526020016000151581525090565b6000604051905090565b600080fd5b600080fd5b600080fd5b600080fd5b6000601f19601f8301169050919050565b7f4e487b7100000000000000000000000000000000000000000000000000000000600052604160045260246000fd5b6114788261142f565b810181811067ffffffffffffffff8211171561149757611496611440565b5b80604052505050565b60006114aa611411565b90506114b6828261146f565b919050565b600067ffffffffffffffff8211156114d6576114d5611440565b5b6114df8261142f565b9050602081019050919050565b82818337600083830152505050565b600061150e611509846114bb565b6114a0565b90508281526020810184848401111561152a5761152961142a565b5b6115358482856114ec565b509392505050565b600082601f83011261155257611551611425565b5b81356115628482602086016114fb565b91505092915050565b600080604083850312156115825761158161141b565b5b600083013567ffffffffffffffff8111156115a05761159f611420565b5b6115ac8582860161153d565b925050602083013567ffffffffffffffff8111156115cd576115cc611420565b5b6115d98582860161153d565b9150509250929050565b6000819050919050565b6115f6816115e3565b811461160157600080fd5b50565b600081359050611613816115ed565b92915050565b600073ffffffffffffffffffffffffffffffffffffffff82169050919050565b600061164482611619565b9050919050565b61165481611639565b811461165f57600080fd5b50565b6000813590506116718161164b565b92915050565b6000806040838503121561168e5761168d61141b565b5b600061169c85828601611604565b92505060206116ad85828601611662565b9150509250929050565b6000602082840312156116cd576116cc61141b565b5b60006116db84828501611604565b91505092915050565b6116ed816115e3565b82525050565b6116fc81611639565b82525050565b600081519050919050565b600082825260208201905092915050565b60005b8381101561173c578082015181840152602081019050611721565b60008484015250505050565b600061175382611702565b61175d818561170d565b935061176d81856020860161171e565b6117768161142f565b840191505092915050565b60008115159050919050565b61179681611781565b82525050565b6000610100820190506117b2600083018b6116e4565b6117bf602083018a6116f3565b81810360408301526117d18189611748565b90506117e060608301886116e4565b6117ed60808301876116e4565b6117fa60a08301866116f3565b61180760c083018561178d565b61181460e083018461178d565b9998505050505050505050565b600080604083850312156118385761183761141b565b5b600083013567ffffffffffffffff81111561185657611855611420565b5b6118628582860161153d565b925050602061187385828601611604565b9150509250929050565b611886816115e3565b82525050565b61189581611639565b82525050565b600082825260208201905092915050565b60006118b782611702565b6118c1818561189b565b93506118d181856020860161171e565b6118da8161142f565b840191505092915050565b6118ee81611781565b82525050565b60006101008301600083015161190d600086018261187d565b506020830151611920602086018261188c565b506040830151848203604086015261193882826118ac565b915050606083015161194d606086018261187d565b506080830151611960608086018261187d565b5060a083015161197360a086018261188c565b5060c083015161198660c08601826118e5565b5060e083015161199960e08601826118e5565b508091505092915050565b600060208201905081810360008301526119be81846118f4565b905092915050565b6000602082840312156119dc576119db61141b565b5b60006119ea84828501611662565b91505092915050565b600060a082019050611a0860008301886116e4565b8181036020830152611a1a8187611748565b90508181036040830152611a2e8186611748565b9050611a3d60608301856116f3565b611a4a608083018461178d565b9695505050505050565b6000602082019050611a6960008301846116e4565b92915050565b7f53747564656e7420616c72656164792072656769737465726564000000000000600082015250565b6000611aa5601a8361170d565b9150611ab082611a6f565b602082019050919050565b60006020820190508181036000830152611ad481611a98565b9050919050565b7f4e616d6520697320726571756972656400000000000000000000000000000000600082015250565b6000611b1160108361170d565b9150611b1c82611adb565b602082019050919050565b60006020820190508181036000830152611b4081611b04565b9050919050565b7f446f63756d656e74206861736820697320726571756972656400000000000000600082015250565b6000611b7d60198361170d565b9150611b8882611b47565b602082019050919050565b60006020820190508181036000830152611bac81611b70565b9050919050565b7f4e487b7100000000000000000000000000000000000000000000000000000000600052602260045260246000fd5b60006002820490506001821680611bfa57607f821691505b602082108103611c0d57611c0c611bb3565b5b50919050565b60008190508160005260206000209050919050565b60006020601f8301049050919050565b600082821b905092915050565b600060088302611c757fffffffffffffffffffffffffffffffffffffffffffffffffffffffffffffffff82611c38565b611c7f8683611c38565b95508019841693508086168417925050509392505050565b6000819050919050565b6000611cbc611cb7611cb2846115e3565b611c97565b6115e3565b9050919050565b6000819050919050565b611cd683611ca1565b611cea611ce282611cc3565b848454611c45565b825550505050565b600090565b611cff611cf2565b611d0a818484611ccd565b505050565b5b81811015611d2e57611d23600082611cf7565b600181019050611d10565b5050565b601f821115611d7357611d4481611c13565b611d4d84611c28565b81016020851015611d5c578190505b611d70611d6885611c28565b830182611d0f565b50505b505050565b600082821c905092915050565b6000611d9660001984600802611d78565b1980831691505092915050565b6000611daf8383611d85565b9150826002028217905092915050565b611dc882611702565b67ffffffffffffffff811115611de157611de0611440565b5b611deb8254611be2565b611df6828285611d32565b600060209050601f831160018114611e295760008415611e17578287015190505b611e218582611da3565b865550611e89565b601f198416611e3786611c13565b60005b82811015611e5f57848901518255600182019150602085019450602081019050611e3a565b86831015611e7c5784890151611e78601f891682611d85565b8355505b6001600288020188555050505b505050505050565b60006020820190508181036000830152611eab8184611748565b905092915050565b7f4e487b7100000000000000000000000000000000000000000000000000000000600052601160045260246000fd5b6000611eed826115e3565b91507fffffffffffffffffffffffffffffffffffffffffffffffffffffffffffffffff8203611f1f57611f1e611eb3565b5b600182019050919050565b7f4f6e6c792074686520646f6e6f722063616e20706572666f726d20746869732060008201527f616374696f6e0000000000000000000000000000000000000000000000000000602082015250565b6000611f8660268361170d565b9150611f9182611f2a565b604082019050919050565b60006020820190508181036000830152611fb581611f79565b9050919050565b7f53747564656e74206973206e6f74207265676973746572656400000000000000600082015250565b6000611ff260198361170d565b9150611ffd82611fbc565b602082019050919050565b6000602082019050818103600083015261202181611fe5565b9050919050565b7f5363686f6c61727368697020616c72656164792061737369676e656400000000600082015250565b600061205e601c8361170d565b915061206982612028565b602082019050919050565b6000602082019050818103600083015261208d81612051565b9050919050565b7f5363686f6c61727368697020616c72656164792066756c66696c6c6564000000600082015250565b60006120ca601d8361170d565b91506120d582612094565b602082019050919050565b600060208201905081810360008301526120f9816120bd565b9050919050565b7f4e6f2073747564656e742061737369676e656400000000000000000000000000600082015250565b600061213660138361170d565b915061214182612100565b602082019050919050565b6000602082019050818103600083015261216581612129565b9050919050565b7f4e6f2066756e647320746f2072656c6561736500000000000000000000000000600082015250565b60006121a260138361170d565b91506121ad8261216c565b602082019050919050565b600060208201905081810360008301526121d181612195565b9050919050565b600081905092915050565b50565b60006121f36000836121d8565b91506121fe826121e3565b600082019050919050565b6000612214826121e6565b9150819050919050565b7f5472616e73666572206661696c65640000000000000000000000000000000000600082015250565b6000612254600f8361170d565b915061225f8261221e565b602082019050919050565b6000602082019050818103600083015261228381612247565b9050919050565b7f5469746c65206973207265717569726564000000000000000000000000000000600082015250565b60006122c060118361170d565b91506122cb8261228a565b602082019050919050565b600060208201905081810360008301526122ef816122b3565b9050919050565b7f416d6f756e74206d7573742062652067726561746572207468616e2030000000600082015250565b600061232c601d8361170d565b9150612337826122f6565b602082019050919050565b6000602082019050818103600083015261235b8161231f565b9050919050565b6000604082019050818103600083015261237c8185611748565b905061238b60208301846116e4565b9392505050565b7f5363686f6c617273686970206973206e6f742061637469766500000000000000600082015250565b60006123c860198361170d565b91506123d382612392565b602082019050919050565b600060208201905081810360008301526123f7816123bb565b9050919050565b7f446f6e6174696f6e20616d6f756e74206d75737420626520677265617465722060008201527f7468616e20300000000000000000000000000000000000000000000000000000602082015250565b600061245a60268361170d565b9150612465826123fe565b604082019050919050565b600060208201905081810360008301526124898161244d565b9050919050565b600061249b826115e3565b91506124a6836115e3565b92508282019050808211156124be576124bd611eb3565b5b9291505056fea2646970667358221220dc5ba1ccdc09bafe8bceacfb730f8b1a81cbb0f4573239ca07b1c8131426a1ec64736f6c634300081c0033",
  "linkReferences": {},
  "deployedLinkReferences": {}
}